{
  "_format": "hh-sol-artifact-1",
  "contractName": "Groth16VerifierFixed",
  "sourceName": "contracts/Groth16VerifierFixed.sol",
  "abi": [
    {
      "inputs": [
        {
          "internalType": "uint256[2]",
          "name": "_pA",
          "type": "uint256[2]"
        },
        {
          "internalType": "uint256[2][2]",
          "name": "_pB",
          "type": "uint256[2][2]"
        },
        {
          "internalType": "uint256[2]",
          "name": "_pC",
          "type": "uint256[2]"
        },
        {
          "internalType": "uint256[3]",
          "name": "_pubSignals",
          "type": "uint256[3]"
        }
      ],
      "name": "verifyProof",
      "outputs": [
        {
          "internalType": "bool",
          "name": "",
          "type": "bool"
        }
      ],
      "stateMutability": "view",
      "type": "function"
    },
    {
      "inputs": [
        {
          "internalType": "uint256[2]",
          "name": "a",
          "type": "uint256[2]"
        },
        {
          "internalType": "uint256[2][2]",
          "name": "b",
          "type": "uint256[2][2]"
        },
        {
          "internalType": "uint256[2]",
          "name": "c",
          "type": "uint256[2]"
        },
        {
          "internalType": "uint256[]",
          "name": "input",
          "type": "uint256[]"
        }
      ],
      "name": "verifyProofDirect",
      "outputs": [
        {
          "internalType": "bool",
          "name": "",
          "type": "bool"
        }
      ],
      "stateMutability": "view",
      "type": "function"
    }
  ],
  "bytecode": "0x608060405234801561001057600080fd5b506126f8806100206000396000f3fe608060405234801561001057600080fd5b50600436106100365760003560e01c806311479fea1461003b5780639b1f085f1461006b575b600080fd5b61005560048036038101906100509190611d25565b61009b565b6040516100629190611da9565b60405180910390f35b610085600480360381019061008091906120b0565b610e33565b6040516100929190611da9565b60405180910390f35b60007f30644e72e131a029b85045b68181585d97816a916871ca8d3c208c16d87cfd47856000600281106100d2576100d1612135565b5b602002013510610117576040517f08c379a000000000000000000000000000000000000000000000000000000000815260040161010e906121c1565b60405180910390fd5b7f30644e72e131a029b85045b68181585d97816a916871ca8d3c208c16d87cfd478560016002811061014c5761014b612135565b5b602002013510610191576040517f08c379a00000000000000000000000000000000000000000000000000000000081526004016101889061222d565b60405180910390fd5b7f30644e72e131a029b85045b68181585d97816a916871ca8d3c208c16d87cfd47846000600281106101c6576101c5612135565b5b604002016000600281106101dd576101dc612135565b5b602002013510610222576040517f08c379a000000000000000000000000000000000000000000000000000000000815260040161021990612299565b60405180910390fd5b7f30644e72e131a029b85045b68181585d97816a916871ca8d3c208c16d87cfd478460006002811061025757610256612135565b5b6040020160016002811061026e5761026d612135565b5b6020020135106102b3576040517f08c379a00000000000000000000000000000000000000000000000000000000081526004016102aa90612305565b60405180910390fd5b7f30644e72e131a029b85045b68181585d97816a916871ca8d3c208c16d87cfd47846001600281106102e8576102e7612135565b5b604002016000600281106102ff576102fe612135565b5b602002013510610344576040517f08c379a000000000000000000000000000000000000000000000000000000000815260040161033b90612371565b60405180910390fd5b7f30644e72e131a029b85045b68181585d97816a916871ca8d3c208c16d87cfd478460016002811061037957610378612135565b5b604002016001600281106103905761038f612135565b5b6020020135106103d5576040517f08c379a00000000000000000000000000000000000000000000000000000000081526004016103cc906123dd565b60405180910390fd5b7f30644e72e131a029b85045b68181585d97816a916871ca8d3c208c16d87cfd478360006002811061040a57610409612135565b5b60200201351061044f576040517f08c379a000000000000000000000000000000000000000000000000000000000815260040161044690612449565b60405180910390fd5b7f30644e72e131a029b85045b68181585d97816a916871ca8d3c208c16d87cfd478360016002811061048457610483612135565b5b6020020135106104c9576040517f08c379a00000000000000000000000000000000000000000000000000000000081526004016104c0906124b5565b60405180910390fd5b60005b6003811015610561577f30644e72e131a029b85045b68181585d2833e84879b9709143e1f593f000000183826003811061050957610508612135565b5b60200201351061054e576040517f08c379a000000000000000000000000000000000000000000000000000000000815260040161054590612521565b60405180910390fd5b808061055990612570565b9150506104cc565b5061056a611c3f565b6001816000600381106105805761057f612135565b5b6020020181815250507f30644e72e131a029b85045b68181585d97816a916871ca8d3c208c16d87cfd45816001600381106105be576105bd612135565b5b6020020181815250506001816002600381106105dd576105dc612135565b5b602002018181525050600060031115610693578260006003811061060457610603612135565b5b6020020135600061061591906125b8565b8160006003811061062957610628612135565b5b6020020181815161063a91906125fa565b915081815250508260006003811061065557610654612135565b5b6020020135600161066691906125b8565b8160016003811061067a57610679612135565b5b6020020181815161068b91906125fa565b915081815250505b60016003111561074057826001600381106106b1576106b0612135565b5b602002013560006106c291906125b8565b816000600381106106d6576106d5612135565b5b602002018181516106e791906125fa565b915081815250508260016003811061070257610701612135565b5b6020020135600161071391906125b8565b8160016003811061072757610726612135565b5b6020020181815161073891906125fa565b915081815250505b6002600311156107ed578260026003811061075e5761075d612135565b5b6020020135600061076f91906125b8565b8160006003811061078357610782612135565b5b6020020181815161079491906125fa565b91508181525050826002600381106107af576107ae612135565b5b602002013560016107c091906125b8565b816001600381106107d4576107d3612135565b5b602002018181516107e591906125fa565b915081815250505b6107f5611c61565b8660006002811061080957610808612135565b5b60200201358160006018811061082257610821612135565b5b6020020181815250507f30644e72e131a029b85045b68181585d97816a916871ca8d3c208c16d87cfd47876001600281106108605761085f612135565b5b602002013561086f919061265d565b7f30644e72e131a029b85045b68181585d97816a916871ca8d3c208c16d87cfd4761089a919061268e565b816001601881106108ae576108ad612135565b5b602002018181525050856000600281106108cb576108ca612135565b5b604002016000600281106108e2576108e1612135565b5b6020020135816002601881106108fb576108fa612135565b5b6020020181815250508560006002811061091857610917612135565b5b6040020160016002811061092f5761092e612135565b5b60200201358160036018811061094857610947612135565b5b6020020181815250508560016002811061096557610964612135565b5b6040020160006002811061097c5761097b612135565b5b60200201358160046018811061099557610994612135565b5b602002018181525050856001600281106109b2576109b1612135565b5b604002016001600281106109c9576109c8612135565b5b6020020135816005601881106109e2576109e1612135565b5b602002018181525050600181600660188110610a0157610a00612135565b5b602002018181525050600281600760188110610a2057610a1f612135565b5b6020020181815250507f1800deef121f1e76426a00665e5c4479674322d4f75edadd46debd5cd992f6ed81600860188110610a5e57610a5d612135565b5b6020020181815250507f198e9393920d483a7260bfb731fb5d25f1aa493335a9e71297e485b7aef312c281600960188110610a9c57610a9b612135565b5b6020020181815250507f12c85ea5db8c6deb4aab71808dcb408fe3d1e7690c43d37b4ce6cc0166fa7daa81600a60188110610ada57610ad9612135565b5b6020020181815250507f090689d0585ff075ec9e99ad690c3395bc4b313370b38ef355acdadcd122975b81600b60188110610b1857610b17612135565b5b60200201818152505081600060038110610b3557610b34612135565b5b602002015181600c60188110610b4e57610b4d612135565b5b60200201818152505081600160038110610b6b57610b6a612135565b5b602002015181600d60188110610b8457610b83612135565b5b6020020181815250507f1800deef121f1e76426a00665e5c4479674322d4f75edadd46debd5cd992f6ed81600e60188110610bc257610bc1612135565b5b6020020181815250507f198e9393920d483a7260bfb731fb5d25f1aa493335a9e71297e485b7aef312c281600f60188110610c0057610bff612135565b5b6020020181815250507f12c85ea5db8c6deb4aab71808dcb408fe3d1e7690c43d37b4ce6cc0166fa7daa81601060188110610c3e57610c3d612135565b5b6020020181815250507f090689d0585ff075ec9e99ad690c3395bc4b313370b38ef355acdadcd122975b81601160188110610c7c57610c7b612135565b5b60200201818152505084600060028110610c9957610c98612135565b5b602002013581601260188110610cb257610cb1612135565b5b60200201818152505084600160028110610ccf57610cce612135565b5b602002013581601360188110610ce857610ce7612135565b5b6020020181815250507f1800deef121f1e76426a00665e5c4479674322d4f75edadd46debd5cd992f6ed81601460188110610d2657610d25612135565b5b6020020181815250507f198e9393920d483a7260bfb731fb5d25f1aa493335a9e71297e485b7aef312c281601560188110610d6457610d63612135565b5b6020020181815250507f12c85ea5db8c6deb4aab71808dcb408fe3d1e7690c43d37b4ce6cc0166fa7daa81601660188110610da257610da1612135565b5b6020020181815250507f090689d0585ff075ec9e99ad690c3395bc4b313370b38ef355acdadcd122975b81601760188110610de057610ddf612135565b5b602002018181525050610df1611c84565b60006020826103008560085afa9050808015610e255750600182600060018110610e1e57610e1d612135565b5b6020020151145b945050505050949350505050565b6000610e3d611c3f565b60005b600381108015610e505750835181105b15610e9f57838181518110610e6857610e67612135565b5b6020026020010151828260038110610e8357610e82612135565b5b6020020181815250508080610e9790612570565b915050610e40565b507f30644e72e131a029b85045b68181585d97816a916871ca8d3c208c16d87cfd4786600060028110610ed557610ed4612135565b5b602002015110610f1a576040517f08c379a0000000000000000000000000000000000000000000000000000000008152600401610f11906121c1565b60405180910390fd5b7f30644e72e131a029b85045b68181585d97816a916871ca8d3c208c16d87cfd4786600160028110610f4f57610f4e612135565b5b602002015110610f94576040517f08c379a0000000000000000000000000000000000000000000000000000000008152600401610f8b9061222d565b60405180910390fd5b7f30644e72e131a029b85045b68181585d97816a916871ca8d3c208c16d87cfd4785600060028110610fc957610fc8612135565b5b6020020151600060028110610fe157610fe0612135565b5b602002015110611026576040517f08c379a000000000000000000000000000000000000000000000000000000000815260040161101d90612299565b60405180910390fd5b7f30644e72e131a029b85045b68181585d97816a916871ca8d3c208c16d87cfd478560006002811061105b5761105a612135565b5b602002015160016002811061107357611072612135565b5b6020020151106110b8576040517f08c379a00000000000000000000000000000000000000000000000000000000081526004016110af90612305565b60405180910390fd5b7f30644e72e131a029b85045b68181585d97816a916871ca8d3c208c16d87cfd47856001600281106110ed576110ec612135565b5b602002015160006002811061110557611104612135565b5b60200201511061114a576040517f08c379a000000000000000000000000000000000000000000000000000000000815260040161114190612371565b60405180910390fd5b7f30644e72e131a029b85045b68181585d97816a916871ca8d3c208c16d87cfd478560016002811061117f5761117e612135565b5b602002015160016002811061119757611196612135565b5b6020020151106111dc576040517f08c379a00000000000000000000000000000000000000000000000000000000081526004016111d3906123dd565b60405180910390fd5b7f30644e72e131a029b85045b68181585d97816a916871ca8d3c208c16d87cfd478460006002811061121157611210612135565b5b602002015110611256576040517f08c379a000000000000000000000000000000000000000000000000000000000815260040161124d90612449565b60405180910390fd5b7f30644e72e131a029b85045b68181585d97816a916871ca8d3c208c16d87cfd478460016002811061128b5761128a612135565b5b6020020151106112d0576040517f08c379a00000000000000000000000000000000000000000000000000000000081526004016112c7906124b5565b60405180910390fd5b60005b6003811015611368577f30644e72e131a029b85045b68181585d2833e84879b9709143e1f593f00000018282600381106113105761130f612135565b5b602002015110611355576040517f08c379a000000000000000000000000000000000000000000000000000000000815260040161134c90612521565b60405180910390fd5b808061136090612570565b9150506112d3565b50611371611c3f565b60018160006003811061138757611386612135565b5b6020020181815250507f30644e72e131a029b85045b68181585d97816a916871ca8d3c208c16d87cfd45816001600381106113c5576113c4612135565b5b6020020181815250506001816002600381106113e4576113e3612135565b5b60200201818152505060006003111561149a578160006003811061140b5761140a612135565b5b6020020151600061141c91906125b8565b816000600381106114305761142f612135565b5b6020020181815161144191906125fa565b915081815250508160006003811061145c5761145b612135565b5b6020020151600161146d91906125b8565b8160016003811061148157611480612135565b5b6020020181815161149291906125fa565b915081815250505b60016003111561154757816001600381106114b8576114b7612135565b5b602002015160006114c991906125b8565b816000600381106114dd576114dc612135565b5b602002018181516114ee91906125fa565b915081815250508160016003811061150957611508612135565b5b6020020151600161151a91906125b8565b8160016003811061152e5761152d612135565b5b6020020181815161153f91906125fa565b915081815250505b6002600311156115f4578160026003811061156557611564612135565b5b6020020151600061157691906125b8565b8160006003811061158a57611589612135565b5b6020020181815161159b91906125fa565b91508181525050816002600381106115b6576115b5612135565b5b602002015160016115c791906125b8565b816001600381106115db576115da612135565b5b602002018181516115ec91906125fa565b915081815250505b6115fc611c61565b876000600281106116105761160f612135565b5b60200201518160006018811061162957611628612135565b5b6020020181815250507f30644e72e131a029b85045b68181585d97816a916871ca8d3c208c16d87cfd478860016002811061166757611666612135565b5b6020020151611676919061265d565b7f30644e72e131a029b85045b68181585d97816a916871ca8d3c208c16d87cfd476116a1919061268e565b816001601881106116b5576116b4612135565b5b602002018181525050866000600281106116d2576116d1612135565b5b60200201516000600281106116ea576116e9612135565b5b60200201518160026018811061170357611702612135565b5b602002018181525050866000600281106117205761171f612135565b5b602002015160016002811061173857611737612135565b5b60200201518160036018811061175157611750612135565b5b6020020181815250508660016002811061176e5761176d612135565b5b602002015160006002811061178657611785612135565b5b60200201518160046018811061179f5761179e612135565b5b602002018181525050866001600281106117bc576117bb612135565b5b60200201516001600281106117d4576117d3612135565b5b6020020151816005601881106117ed576117ec612135565b5b60200201818152505060018160066018811061180c5761180b612135565b5b60200201818152505060028160076018811061182b5761182a612135565b5b6020020181815250507f1800deef121f1e76426a00665e5c4479674322d4f75edadd46debd5cd992f6ed8160086018811061186957611868612135565b5b6020020181815250507f198e9393920d483a7260bfb731fb5d25f1aa493335a9e71297e485b7aef312c2816009601881106118a7576118a6612135565b5b6020020181815250507f12c85ea5db8c6deb4aab71808dcb408fe3d1e7690c43d37b4ce6cc0166fa7daa81600a601881106118e5576118e4612135565b5b6020020181815250507f090689d0585ff075ec9e99ad690c3395bc4b313370b38ef355acdadcd122975b81600b6018811061192357611922612135565b5b602002018181525050816000600381106119405761193f612135565b5b602002015181600c6018811061195957611958612135565b5b6020020181815250508160016003811061197657611975612135565b5b602002015181600d6018811061198f5761198e612135565b5b6020020181815250507f1800deef121f1e76426a00665e5c4479674322d4f75edadd46debd5cd992f6ed81600e601881106119cd576119cc612135565b5b6020020181815250507f198e9393920d483a7260bfb731fb5d25f1aa493335a9e71297e485b7aef312c281600f60188110611a0b57611a0a612135565b5b6020020181815250507f12c85ea5db8c6deb4aab71808dcb408fe3d1e7690c43d37b4ce6cc0166fa7daa81601060188110611a4957611a48612135565b5b6020020181815250507f090689d0585ff075ec9e99ad690c3395bc4b313370b38ef355acdadcd122975b81601160188110611a8757611a86612135565b5b60200201818152505085600060028110611aa457611aa3612135565b5b602002015181601260188110611abd57611abc612135565b5b60200201818152505085600160028110611ada57611ad9612135565b5b602002015181601360188110611af357611af2612135565b5b6020020181815250507f1800deef121f1e76426a00665e5c4479674322d4f75edadd46debd5cd992f6ed81601460188110611b3157611b30612135565b5b6020020181815250507f198e9393920d483a7260bfb731fb5d25f1aa493335a9e71297e485b7aef312c281601560188110611b6f57611b6e612135565b5b6020020181815250507f12c85ea5db8c6deb4aab71808dcb408fe3d1e7690c43d37b4ce6cc0166fa7daa81601660188110611bad57611bac612135565b5b6020020181815250507f090689d0585ff075ec9e99ad690c3395bc4b313370b38ef355acdadcd122975b81601760188110611beb57611bea612135565b5b602002018181525050611bfc611c84565b60006020826103008560085afa9050808015611c305750600182600060018110611c2957611c28612135565b5b6020020151145b95505050505050949350505050565b6040518060600160405280600390602082028036833780820191505090505090565b604051806103000160405280601890602082028036833780820191505090505090565b6040518060200160405280600190602082028036833780820191505090505090565b6000604051905090565b600080fd5b600080fd5b600080fd5b600081905082602060020282011115611cdb57611cda611cba565b5b92915050565b600081905082604060020282011115611cfd57611cfc611cba565b5b92915050565b600081905082602060030282011115611d1f57611d1e611cba565b5b92915050565b6000806000806101608587031215611d4057611d3f611cb0565b5b6000611d4e87828801611cbf565b9450506040611d5f87828801611ce1565b93505060c0611d7087828801611cbf565b925050610100611d8287828801611d03565b91505092959194509250565b60008115159050919050565b611da381611d8e565b82525050565b6000602082019050611dbe6000830184611d9a565b92915050565b600080fd5b6000601f19601f8301169050919050565b7f4e487b7100000000000000000000000000000000000000000000000000000000600052604160045260246000fd5b611e1282611dc9565b810181811067ffffffffffffffff82111715611e3157611e30611dda565b5b80604052505050565b6000611e44611ca6565b9050611e508282611e09565b919050565b600067ffffffffffffffff821115611e7057611e6f611dda565b5b602082029050919050565b6000819050919050565b611e8e81611e7b565b8114611e9957600080fd5b50565b600081359050611eab81611e85565b92915050565b6000611ec4611ebf84611e55565b611e3a565b90508060208402830185811115611ede57611edd611cba565b5b835b81811015611f075780611ef38882611e9c565b845260208401935050602081019050611ee0565b5050509392505050565b600082601f830112611f2657611f25611dc4565b5b6002611f33848285611eb1565b91505092915050565b600067ffffffffffffffff821115611f5757611f56611dda565b5b602082029050919050565b6000611f75611f7084611f3c565b611e3a565b90508060408402830185811115611f8f57611f8e611cba565b5b835b81811015611fb85780611fa48882611f11565b845260208401935050604081019050611f91565b5050509392505050565b600082601f830112611fd757611fd6611dc4565b5b6002611fe4848285611f62565b91505092915050565b600067ffffffffffffffff82111561200857612007611dda565b5b602082029050602081019050919050565b600061202c61202784611fed565b611e3a565b9050808382526020820190506020840283018581111561204f5761204e611cba565b5b835b8181101561207857806120648882611e9c565b845260208401935050602081019050612051565b5050509392505050565b600082601f83011261209757612096611dc4565b5b81356120a7848260208601612019565b91505092915050565b60008060008061012085870312156120cb576120ca611cb0565b5b60006120d987828801611f11565b94505060406120ea87828801611fc2565b93505060c06120fb87828801611f11565b92505061010085013567ffffffffffffffff81111561211d5761211c611cb5565b5b61212987828801612082565b91505092959194509250565b7f4e487b7100000000000000000000000000000000000000000000000000000000600052603260045260246000fd5b600082825260208201905092915050565b7f496e76616c69642070726f6f663a2070415b305d203e3d207100000000000000600082015250565b60006121ab601983612164565b91506121b682612175565b602082019050919050565b600060208201905081810360008301526121da8161219e565b9050919050565b7f496e76616c69642070726f6f663a2070415b315d203e3d207100000000000000600082015250565b6000612217601983612164565b9150612222826121e1565b602082019050919050565b600060208201905081810360008301526122468161220a565b9050919050565b7f496e76616c69642070726f6f663a2070425b305d5b305d203e3d207100000000600082015250565b6000612283601c83612164565b915061228e8261224d565b602082019050919050565b600060208201905081810360008301526122b281612276565b9050919050565b7f496e76616c69642070726f6f663a2070425b305d5b315d203e3d207100000000600082015250565b60006122ef601c83612164565b91506122fa826122b9565b602082019050919050565b6000602082019050818103600083015261231e816122e2565b9050919050565b7f496e76616c69642070726f6f663a2070425b315d5b305d203e3d207100000000600082015250565b600061235b601c83612164565b915061236682612325565b602082019050919050565b6000602082019050818103600083015261238a8161234e565b9050919050565b7f496e76616c69642070726f6f663a2070425b315d5b315d203e3d207100000000600082015250565b60006123c7601c83612164565b91506123d282612391565b602082019050919050565b600060208201905081810360008301526123f6816123ba565b9050919050565b7f496e76616c69642070726f6f663a2070435b305d203e3d207100000000000000600082015250565b6000612433601983612164565b915061243e826123fd565b602082019050919050565b6000602082019050818103600083015261246281612426565b9050919050565b7f496e76616c69642070726f6f663a2070435b315d203e3d207100000000000000600082015250565b600061249f601983612164565b91506124aa82612469565b602082019050919050565b600060208201905081810360008301526124ce81612492565b9050919050565b7f496e76616c6964207075626c696320696e7075743a203e3d2072000000000000600082015250565b600061250b601a83612164565b9150612516826124d5565b602082019050919050565b6000602082019050818103600083015261253a816124fe565b9050919050565b7f4e487b7100000000000000000000000000000000000000000000000000000000600052601160045260246000fd5b600061257b82611e7b565b91507fffffffffffffffffffffffffffffffffffffffffffffffffffffffffffffffff82036125ad576125ac612541565b5b600182019050919050565b60006125c382611e7b565b91506125ce83611e7b565b92508282026125dc81611e7b565b915082820484148315176125f3576125f2612541565b5b5092915050565b600061260582611e7b565b915061261083611e7b565b925082820190508082111561262857612627612541565b5b92915050565b7f4e487b7100000000000000000000000000000000000000000000000000000000600052601260045260246000fd5b600061266882611e7b565b915061267383611e7b565b9250826126835761268261262e565b5b828206905092915050565b600061269982611e7b565b91506126a483611e7b565b92508282039050818111156126bc576126bb612541565b5b9291505056fea2646970667358221220649c6e61479c87f2b5ad561f5e8f47dc91891e5479d9b261a0e5514b2718927964736f6c63430008130033",
  "linkReferences": {},
  "deployedLinkReferences": {}
}