{
  "_format": "hh-sol-artifact-1",
  "contractName": "TaxSystem",
  "sourceName": "contracts/TaxSystem.sol",
  "abi": [
    {
      "inputs": [
        {
          "internalType": "address",
          "name": "_treasuryWallet",
          "type": "address"
        },
        {
          "internalType": "address",
          "name": "_zkpVerifier",
          "type": "address"
        }
      ],
      "stateMutability": "nonpayable",
      "type": "constructor"
    },
    {
      "anonymous": false,
      "inputs": [
        {
          "indexed": true,
          "internalType": "address",
          "name": "userAddress",
          "type": "address"
        },
        {
          "indexed": false,
          "internalType": "bytes32",
          "name": "commitment",
          "type": "bytes32"
        }
      ],
      "name": "CommitmentStored",
      "type": "event"
    },
    {
      "anonymous": false,
      "inputs": [
        {
          "indexed": true,
          "internalType": "address",
          "name": "userAddress",
          "type": "address"
        },
        {
          "indexed": false,
          "internalType": "bytes32",
          "name": "proofId",
          "type": "bytes32"
        },
        {
          "indexed": false,
          "internalType": "bool",
          "name": "isValid",
          "type": "bool"
        }
      ],
      "name": "ProofVerified",
      "type": "event"
    },
    {
      "anonymous": false,
      "inputs": [
        {
          "indexed": true,
          "internalType": "address",
          "name": "userAddress",
          "type": "address"
        },
        {
          "indexed": false,
          "internalType": "uint256",
          "name": "amount",
          "type": "uint256"
        },
        {
          "indexed": false,
          "internalType": "bytes32",
          "name": "proofId",
          "type": "bytes32"
        },
        {
          "indexed": false,
          "internalType": "bytes32",
          "name": "paymentHash",
          "type": "bytes32"
        }
      ],
      "name": "TaxPaid",
      "type": "event"
    },
    {
      "anonymous": false,
      "inputs": [
        {
          "indexed": true,
          "internalType": "address",
          "name": "oldWallet",
          "type": "address"
        },
        {
          "indexed": true,
          "internalType": "address",
          "name": "newWallet",
          "type": "address"
        }
      ],
      "name": "TreasuryWalletUpdated",
      "type": "event"
    },
    {
      "anonymous": false,
      "inputs": [
        {
          "indexed": true,
          "internalType": "address",
          "name": "oldVerifier",
          "type": "address"
        },
        {
          "indexed": true,
          "internalType": "address",
          "name": "newVerifier",
          "type": "address"
        }
      ],
      "name": "ZKPVerifierUpdated",
      "type": "event"
    },
    {
      "inputs": [
        {
          "internalType": "uint256",
          "name": "",
          "type": "uint256"
        }
      ],
      "name": "allTaxPaymentHashes",
      "outputs": [
        {
          "internalType": "bytes32",
          "name": "",
          "type": "bytes32"
        }
      ],
      "stateMutability": "view",
      "type": "function"
    },
    {
      "inputs": [],
      "name": "getTreasuryBalance",
      "outputs": [
        {
          "internalType": "uint256",
          "name": "balance",
          "type": "uint256"
        }
      ],
      "stateMutability": "view",
      "type": "function"
    },
    {
      "inputs": [],
      "name": "owner",
      "outputs": [
        {
          "internalType": "address",
          "name": "",
          "type": "address"
        }
      ],
      "stateMutability": "view",
      "type": "function"
    },
    {
      "inputs": [
        {
          "internalType": "uint256",
          "name": "amount",
          "type": "uint256"
        },
        {
          "internalType": "uint256[2]",
          "name": "a",
          "type": "uint256[2]"
        },
        {
          "internalType": "uint256[2][2]",
          "name": "b",
          "type": "uint256[2][2]"
        },
        {
          "internalType": "uint256[2]",
          "name": "c",
          "type": "uint256[2]"
        },
        {
          "internalType": "uint256[]",
          "name": "input",
          "type": "uint256[]"
        }
      ],
      "name": "processTaxPayment",
      "outputs": [
        {
          "internalType": "bytes32",
          "name": "paymentHash",
          "type": "bytes32"
        }
      ],
      "stateMutability": "payable",
      "type": "function"
    },
    {
      "inputs": [
        {
          "internalType": "bytes32",
          "name": "commitment",
          "type": "bytes32"
        }
      ],
      "name": "storeCommitment",
      "outputs": [],
      "stateMutability": "nonpayable",
      "type": "function"
    },
    {
      "inputs": [
        {
          "internalType": "address",
          "name": "",
          "type": "address"
        },
        {
          "internalType": "bytes32",
          "name": "",
          "type": "bytes32"
        }
      ],
      "name": "taxPayments",
      "outputs": [
        {
          "internalType": "address",
          "name": "userAddress",
          "type": "address"
        },
        {
          "internalType": "uint256",
          "name": "amount",
          "type": "uint256"
        },
        {
          "internalType": "bytes32",
          "name": "proofId",
          "type": "bytes32"
        },
        {
          "internalType": "uint256",
          "name": "timestamp",
          "type": "uint256"
        },
        {
          "internalType": "bool",
          "name": "verified",
          "type": "bool"
        }
      ],
      "stateMutability": "view",
      "type": "function"
    },
    {
      "inputs": [],
      "name": "totalTaxCollected",
      "outputs": [
        {
          "internalType": "uint256",
          "name": "",
          "type": "uint256"
        }
      ],
      "stateMutability": "view",
      "type": "function"
    },
    {
      "inputs": [],
      "name": "treasuryWallet",
      "outputs": [
        {
          "internalType": "address",
          "name": "",
          "type": "address"
        }
      ],
      "stateMutability": "view",
      "type": "function"
    },
    {
      "inputs": [
        {
          "internalType": "address",
          "name": "_treasuryWallet",
          "type": "address"
        }
      ],
      "name": "updateTreasuryWallet",
      "outputs": [],
      "stateMutability": "nonpayable",
      "type": "function"
    },
    {
      "inputs": [
        {
          "internalType": "address",
          "name": "_zkpVerifier",
          "type": "address"
        }
      ],
      "name": "updateZKPVerifier",
      "outputs": [],
      "stateMutability": "nonpayable",
      "type": "function"
    },
    {
      "inputs": [
        {
          "internalType": "bytes32",
          "name": "paymentHash",
          "type": "bytes32"
        },
        {
          "internalType": "address",
          "name": "userAddress",
          "type": "address"
        }
      ],
      "name": "verifyTaxReceipt",
      "outputs": [
        {
          "internalType": "bool",
          "name": "verified",
          "type": "bool"
        }
      ],
      "stateMutability": "view",
      "type": "function"
    },
    {
      "inputs": [],
      "name": "zkpVerifier",
      "outputs": [
        {
          "internalType": "contract ZKPVerifier",
          "name": "",
          "type": "address"
        }
      ],
      "stateMutability": "view",
      "type": "function"
    }
  ],
  "bytecode": "0x60a06040523480156200001157600080fd5b50604051620025b1380380620025b1833981810160405281019062000037919062000253565b6001600081905550600073ffffffffffffffffffffffffffffffffffffffff168273ffffffffffffffffffffffffffffffffffffffff1603620000b1576040517f08c379a0000000000000000000000000000000000000000000000000000000008152600401620000a890620002fb565b60405180910390fd5b600073ffffffffffffffffffffffffffffffffffffffff168173ffffffffffffffffffffffffffffffffffffffff160362000123576040517f08c379a00000000000000000000000000000000000000000000000000000000081526004016200011a906200036d565b60405180910390fd5b3373ffffffffffffffffffffffffffffffffffffffff1660808173ffffffffffffffffffffffffffffffffffffffff168152505081600160006101000a81548173ffffffffffffffffffffffffffffffffffffffff021916908373ffffffffffffffffffffffffffffffffffffffff16021790555080600260006101000a81548173ffffffffffffffffffffffffffffffffffffffff021916908373ffffffffffffffffffffffffffffffffffffffff160217905550600060058190555050506200038f565b600080fd5b600073ffffffffffffffffffffffffffffffffffffffff82169050919050565b60006200021b82620001ee565b9050919050565b6200022d816200020e565b81146200023957600080fd5b50565b6000815190506200024d8162000222565b92915050565b600080604083850312156200026d576200026c620001e9565b5b60006200027d858286016200023c565b925050602062000290858286016200023c565b9150509250929050565b600082825260208201905092915050565b7f496e76616c69642074726561737572792077616c6c6574000000000000000000600082015250565b6000620002e36017836200029a565b9150620002f082620002ab565b602082019050919050565b600060208201905081810360008301526200031681620002d4565b9050919050565b7f496e76616c6964205a4b50207665726966696572000000000000000000000000600082015250565b6000620003556014836200029a565b915062000362826200031d565b602082019050919050565b60006020820190508181036000830152620003888162000346565b9050919050565b6080516121f8620003b9600039600081816102eb01528181610bf20152610dd901526121f86000f3fe6080604052600436106100a75760003560e01c8063809d458d11610064578063809d458d146101c557806386b4abfc146101ee5780638da5cb5b1461022b5780639515b134146102565780639b5655dc14610293578063d8454a82146102be576100a7565b8063179bff4c146100ac578063377d2778146100d55780634626402b146100fe5780636aebbd66146101295780637a9d02a1146101545780637b28ba4314610184575b600080fd5b3480156100b857600080fd5b506100d360048036038101906100ce919061101a565b6102e9565b005b3480156100e157600080fd5b506100fc60048036038101906100f7919061107d565b6104ac565b005b34801561010a57600080fd5b506101136105e1565b60405161012091906110b9565b60405180910390f35b34801561013557600080fd5b5061013e610607565b60405161014b9190611133565b60405180910390f35b61016e6004803603810190610169919061143f565b61062d565b60405161017b91906114e7565b60405180910390f35b34801561019057600080fd5b506101ab60048036038101906101a69190611502565b610b80565b6040516101bc95949392919061156c565b60405180910390f35b3480156101d157600080fd5b506101ec60048036038101906101e7919061101a565b610bf0565b005b3480156101fa57600080fd5b50610215600480360381019061021091906115bf565b610db3565b60405161022291906114e7565b60405180910390f35b34801561023757600080fd5b50610240610dd7565b60405161024d91906110b9565b60405180910390f35b34801561026257600080fd5b5061027d600480360381019061027891906115ec565b610dfb565b60405161028a919061162c565b60405180910390f35b34801561029f57600080fd5b506102a8610f08565b6040516102b59190611647565b60405180910390f35b3480156102ca57600080fd5b506102d3610f49565b6040516102e09190611647565b60405180910390f35b7f000000000000000000000000000000000000000000000000000000000000000073ffffffffffffffffffffffffffffffffffffffff163373ffffffffffffffffffffffffffffffffffffffff1614610377576040517f08c379a000000000000000000000000000000000000000000000000000000000815260040161036e906116e5565b60405180910390fd5b600073ffffffffffffffffffffffffffffffffffffffff168173ffffffffffffffffffffffffffffffffffffffff16036103e6576040517f08c379a00000000000000000000000000000000000000000000000000000000081526004016103dd90611751565b60405180910390fd5b6000600260009054906101000a900473ffffffffffffffffffffffffffffffffffffffff16905081600260006101000a81548173ffffffffffffffffffffffffffffffffffffffff021916908373ffffffffffffffffffffffffffffffffffffffff1602179055508173ffffffffffffffffffffffffffffffffffffffff168173ffffffffffffffffffffffffffffffffffffffff167f568f493769992355f5c1dea0f6167ea2f375bb6250fc89f5c2e0ecce976516c360405160405180910390a35050565b6000801b81036104f1576040517f08c379a00000000000000000000000000000000000000000000000000000000081526004016104e8906117bd565b60405180910390fd5b600260009054906101000a900473ffffffffffffffffffffffffffffffffffffffff1673ffffffffffffffffffffffffffffffffffffffff1663377d2778826040518263ffffffff1660e01b815260040161054c91906114e7565b6020604051808303816000875af115801561056b573d6000803e3d6000fd5b505050506040513d601f19601f8201168201806040525081019061058f9190611809565b503373ffffffffffffffffffffffffffffffffffffffff167f3d72d29667cd2cb55607b194d3fff97eb719a56e534ef08df10e1dca46d728c0826040516105d691906114e7565b60405180910390a250565b600160009054906101000a900473ffffffffffffffffffffffffffffffffffffffff1681565b600260009054906101000a900473ffffffffffffffffffffffffffffffffffffffff1681565b6000610637610f4f565b853414610679576040517f08c379a000000000000000000000000000000000000000000000000000000000815260040161067090611882565b60405180910390fd5b600086116106bc576040517f08c379a00000000000000000000000000000000000000000000000000000000081526004016106b3906118ee565b60405180910390fd5b6000600260009054906101000a900473ffffffffffffffffffffffffffffffffffffffff1673ffffffffffffffffffffffffffffffffffffffff1663c32e370e878787876040518563ffffffff1660e01b815260040161071f9493929190611b4e565b6020604051808303816000875af115801561073e573d6000803e3d6000fd5b505050506040513d601f19601f820116820180604052508101906107629190611809565b9050806107a4576040517f08c379a000000000000000000000000000000000000000000000000000000000815260040161079b90611be8565b60405180910390fd5b6000868686866040516020016107bd9493929190611dd6565b60405160208183030381529060405280519060200120905033888242466040516020016107ee959493929190611eaa565b6040516020818303038152906040528051906020012092506000600360003373ffffffffffffffffffffffffffffffffffffffff1673ffffffffffffffffffffffffffffffffffffffff1681526020019081526020016000206000858152602001908152602001600020600301541461089c576040517f08c379a000000000000000000000000000000000000000000000000000000000815260040161089390611f55565b60405180910390fd5b6000600160009054906101000a900473ffffffffffffffffffffffffffffffffffffffff1673ffffffffffffffffffffffffffffffffffffffff16896040516108e490611fa6565b60006040518083038185875af1925050503d8060008114610921576040519150601f19603f3d011682016040523d82523d6000602084013e610926565b606091505b505090508061096a576040517f08c379a000000000000000000000000000000000000000000000000000000000815260040161096190612007565b60405180910390fd5b60006040518060a001604052803373ffffffffffffffffffffffffffffffffffffffff1681526020018b815260200184815260200142815260200160011515815250905080600360003373ffffffffffffffffffffffffffffffffffffffff1673ffffffffffffffffffffffffffffffffffffffff168152602001908152602001600020600087815260200190815260200160002060008201518160000160006101000a81548173ffffffffffffffffffffffffffffffffffffffff021916908373ffffffffffffffffffffffffffffffffffffffff16021790555060208201518160010155604082015181600201556060820151816003015560808201518160040160006101000a81548160ff02191690831515021790555090505060048590806001815401808255809150506001900390600052602060002001600090919091909150558960056000828254610ac29190612056565b925050819055503373ffffffffffffffffffffffffffffffffffffffff167fe8ad06fecfe3c13cc84998449b1933654518c4ba62322f6f5f079ca0e8e822338486604051610b1192919061208a565b60405180910390a23373ffffffffffffffffffffffffffffffffffffffff167fcfc66cd0909aab68d1e175c5eaf8b4c8083d75ddd74088848b0d361d1f3a83678b8588604051610b63939291906120b3565b60405180910390a250505050610b77610f9e565b95945050505050565b6003602052816000526040600020602052806000526040600020600091509150508060000160009054906101000a900473ffffffffffffffffffffffffffffffffffffffff16908060010154908060020154908060030154908060040160009054906101000a900460ff16905085565b7f000000000000000000000000000000000000000000000000000000000000000073ffffffffffffffffffffffffffffffffffffffff163373ffffffffffffffffffffffffffffffffffffffff1614610c7e576040517f08c379a0000000000000000000000000000000000000000000000000000000008152600401610c75906116e5565b60405180910390fd5b600073ffffffffffffffffffffffffffffffffffffffff168173ffffffffffffffffffffffffffffffffffffffff1603610ced576040517f08c379a0000000000000000000000000000000000000000000000000000000008152600401610ce490612136565b60405180910390fd5b6000600160009054906101000a900473ffffffffffffffffffffffffffffffffffffffff16905081600160006101000a81548173ffffffffffffffffffffffffffffffffffffffff021916908373ffffffffffffffffffffffffffffffffffffffff1602179055508173ffffffffffffffffffffffffffffffffffffffff168173ffffffffffffffffffffffffffffffffffffffff167fa982575859d7ad2f390dc12b23f7dab8bbda047f9d0140ac68344b27bf34bfb460405160405180910390a35050565b60048181548110610dc357600080fd5b906000526020600020016000915090505481565b7f000000000000000000000000000000000000000000000000000000000000000081565b600080600360008473ffffffffffffffffffffffffffffffffffffffff1673ffffffffffffffffffffffffffffffffffffffff16815260200190815260200160002060008581526020019081526020016000206040518060a00160405290816000820160009054906101000a900473ffffffffffffffffffffffffffffffffffffffff1673ffffffffffffffffffffffffffffffffffffffff1673ffffffffffffffffffffffffffffffffffffffff1681526020016001820154815260200160028201548152602001600382015481526020016004820160009054906101000a900460ff161515151581525050905080608001518015610eff575060008160600151115b91505092915050565b6000600160009054906101000a900473ffffffffffffffffffffffffffffffffffffffff1673ffffffffffffffffffffffffffffffffffffffff1631905090565b60055481565b600260005403610f94576040517f08c379a0000000000000000000000000000000000000000000000000000000008152600401610f8b906121a2565b60405180910390fd5b6002600081905550565b6001600081905550565b6000604051905090565b600080fd5b600080fd5b600073ffffffffffffffffffffffffffffffffffffffff82169050919050565b6000610fe782610fbc565b9050919050565b610ff781610fdc565b811461100257600080fd5b50565b60008135905061101481610fee565b92915050565b6000602082840312156110305761102f610fb2565b5b600061103e84828501611005565b91505092915050565b6000819050919050565b61105a81611047565b811461106557600080fd5b50565b60008135905061107781611051565b92915050565b60006020828403121561109357611092610fb2565b5b60006110a184828501611068565b91505092915050565b6110b381610fdc565b82525050565b60006020820190506110ce60008301846110aa565b92915050565b6000819050919050565b60006110f96110f46110ef84610fbc565b6110d4565b610fbc565b9050919050565b600061110b826110de565b9050919050565b600061111d82611100565b9050919050565b61112d81611112565b82525050565b60006020820190506111486000830184611124565b92915050565b6000819050919050565b6111618161114e565b811461116c57600080fd5b50565b60008135905061117e81611158565b92915050565b600080fd5b6000601f19601f8301169050919050565b7f4e487b7100000000000000000000000000000000000000000000000000000000600052604160045260246000fd5b6111d282611189565b810181811067ffffffffffffffff821117156111f1576111f061119a565b5b80604052505050565b6000611204610fa8565b905061121082826111c9565b919050565b600067ffffffffffffffff8211156112305761122f61119a565b5b602082029050919050565b600080fd5b600061125361124e84611215565b6111fa565b9050806020840283018581111561126d5761126c61123b565b5b835b818110156112965780611282888261116f565b84526020840193505060208101905061126f565b5050509392505050565b600082601f8301126112b5576112b4611184565b5b60026112c2848285611240565b91505092915050565b600067ffffffffffffffff8211156112e6576112e561119a565b5b602082029050919050565b60006113046112ff846112cb565b6111fa565b9050806040840283018581111561131e5761131d61123b565b5b835b81811015611347578061133388826112a0565b845260208401935050604081019050611320565b5050509392505050565b600082601f83011261136657611365611184565b5b60026113738482856112f1565b91505092915050565b600067ffffffffffffffff8211156113975761139661119a565b5b602082029050602081019050919050565b60006113bb6113b68461137c565b6111fa565b905080838252602082019050602084028301858111156113de576113dd61123b565b5b835b8181101561140757806113f3888261116f565b8452602084019350506020810190506113e0565b5050509392505050565b600082601f83011261142657611425611184565b5b81356114368482602086016113a8565b91505092915050565b6000806000806000610140868803121561145c5761145b610fb2565b5b600061146a8882890161116f565b955050602061147b888289016112a0565b945050606061148c88828901611351565b93505060e061149d888289016112a0565b92505061012086013567ffffffffffffffff8111156114bf576114be610fb7565b5b6114cb88828901611411565b9150509295509295909350565b6114e181611047565b82525050565b60006020820190506114fc60008301846114d8565b92915050565b6000806040838503121561151957611518610fb2565b5b600061152785828601611005565b925050602061153885828601611068565b9150509250929050565b61154b8161114e565b82525050565b60008115159050919050565b61156681611551565b82525050565b600060a08201905061158160008301886110aa565b61158e6020830187611542565b61159b60408301866114d8565b6115a86060830185611542565b6115b5608083018461155d565b9695505050505050565b6000602082840312156115d5576115d4610fb2565b5b60006115e38482850161116f565b91505092915050565b6000806040838503121561160357611602610fb2565b5b600061161185828601611068565b925050602061162285828601611005565b9150509250929050565b6000602082019050611641600083018461155d565b92915050565b600060208201905061165c6000830184611542565b92915050565b600082825260208201905092915050565b7f4f6e6c79206f776e65722063616e2063616c6c20746869732066756e6374696f60008201527f6e00000000000000000000000000000000000000000000000000000000000000602082015250565b60006116cf602183611662565b91506116da82611673565b604082019050919050565b600060208201905081810360008301526116fe816116c2565b9050919050565b7f496e76616c6964205a4b50207665726966696572000000000000000000000000600082015250565b600061173b601483611662565b915061174682611705565b602082019050919050565b6000602082019050818103600083015261176a8161172e565b9050919050565b7f496e76616c696420636f6d6d69746d656e740000000000000000000000000000600082015250565b60006117a7601283611662565b91506117b282611771565b602082019050919050565b600060208201905081810360008301526117d68161179a565b9050919050565b6117e681611551565b81146117f157600080fd5b50565b600081519050611803816117dd565b92915050565b60006020828403121561181f5761181e610fb2565b5b600061182d848285016117f4565b91505092915050565b7f496e636f7272656374207061796d656e7420616d6f756e740000000000000000600082015250565b600061186c601883611662565b915061187782611836565b602082019050919050565b6000602082019050818103600083015261189b8161185f565b9050919050565b7f416d6f756e74206d7573742062652067726561746572207468616e207a65726f600082015250565b60006118d8602083611662565b91506118e3826118a2565b602082019050919050565b60006020820190508181036000830152611907816118cb565b9050919050565b600060029050919050565b600081905092915050565b6000819050919050565b6119378161114e565b82525050565b6000611949838361192e565b60208301905092915050565b6000602082019050919050565b61196b8161190e565b6119758184611919565b925061198082611924565b8060005b838110156119b1578151611998878261193d565b96506119a383611955565b925050600181019050611984565b505050505050565b600060029050919050565b600081905092915050565b6000819050919050565b600081905092915050565b6119ed8161190e565b6119f781846119d9565b9250611a0282611924565b8060005b83811015611a33578151611a1a878261193d565b9650611a2583611955565b925050600181019050611a06565b505050505050565b6000611a4783836119e4565b60408301905092915050565b6000602082019050919050565b611a69816119b9565b611a7381846119c4565b9250611a7e826119cf565b8060005b83811015611aaf578151611a968782611a3b565b9650611aa183611a53565b925050600181019050611a82565b505050505050565b600081519050919050565b600082825260208201905092915050565b6000819050602082019050919050565b6000602082019050919050565b6000611afb82611ab7565b611b058185611ac2565b9350611b1083611ad3565b8060005b83811015611b41578151611b28888261193d565b9750611b3383611ae3565b925050600181019050611b14565b5085935050505092915050565b600061012082019050611b646000830187611962565b611b716040830186611a60565b611b7e60c0830185611962565b818103610100830152611b918184611af0565b905095945050505050565b7f496e76616c6964205a4b502070726f6f66000000000000000000000000000000600082015250565b6000611bd2601183611662565b9150611bdd82611b9c565b602082019050919050565b60006020820190508181036000830152611c0181611bc5565b9050919050565b600081905092915050565b611c1c8161114e565b82525050565b6000611c2e8383611c13565b60208301905092915050565b611c438161190e565b611c4d8184611c08565b9250611c5882611924565b8060005b83811015611c89578151611c708782611c22565b9650611c7b83611955565b925050600181019050611c5c565b505050505050565b600081905092915050565b600081905092915050565b611cb08161190e565b611cba8184611c9c565b9250611cc582611924565b8060005b83811015611cf6578151611cdd8782611c22565b9650611ce883611955565b925050600181019050611cc9565b505050505050565b6000611d0a8383611ca7565b60408301905092915050565b611d1f816119b9565b611d298184611c91565b9250611d34826119cf565b8060005b83811015611d65578151611d4c8782611cfe565b9650611d5783611a53565b925050600181019050611d38565b505050505050565b600081905092915050565b6000611d8382611ab7565b611d8d8185611d6d565b9350611d9883611ad3565b8060005b83811015611dc9578151611db08882611c22565b9750611dbb83611ae3565b925050600181019050611d9c565b5085935050505092915050565b6000611de28287611c3a565b604082019150611df28286611d16565b608082019150611e028285611c3a565b604082019150611e128284611d78565b915081905095945050505050565b60008160601b9050919050565b6000611e3882611e20565b9050919050565b6000611e4a82611e2d565b9050919050565b611e62611e5d82610fdc565b611e3f565b82525050565b6000819050919050565b611e83611e7e8261114e565b611e68565b82525050565b6000819050919050565b611ea4611e9f82611047565b611e89565b82525050565b6000611eb68288611e51565b601482019150611ec68287611e72565b602082019150611ed68286611e93565b602082019150611ee68285611e72565b602082019150611ef68284611e72565b6020820191508190509695505050505050565b7f5061796d656e7420616c72656164792070726f63657373656400000000000000600082015250565b6000611f3f601983611662565b9150611f4a82611f09565b602082019050919050565b60006020820190508181036000830152611f6e81611f32565b9050919050565b600081905092915050565b50565b6000611f90600083611f75565b9150611f9b82611f80565b600082019050919050565b6000611fb182611f83565b9150819050919050565b7f5472616e7366657220746f207472656173757279206661696c65640000000000600082015250565b6000611ff1601b83611662565b9150611ffc82611fbb565b602082019050919050565b6000602082019050818103600083015261202081611fe4565b9050919050565b7f4e487b7100000000000000000000000000000000000000000000000000000000600052601160045260246000fd5b60006120618261114e565b915061206c8361114e565b925082820190508082111561208457612083612027565b5b92915050565b600060408201905061209f60008301856114d8565b6120ac602083018461155d565b9392505050565b60006060820190506120c86000830186611542565b6120d560208301856114d8565b6120e260408301846114d8565b949350505050565b7f496e76616c69642074726561737572792077616c6c6574000000000000000000600082015250565b6000612120601783611662565b915061212b826120ea565b602082019050919050565b6000602082019050818103600083015261214f81612113565b9050919050565b7f5265656e7472616e637947756172643a207265656e7472616e742063616c6c00600082015250565b600061218c601f83611662565b915061219782612156565b602082019050919050565b600060208201905081810360008301526121bb8161217f565b905091905056fea26469706673582212207f2798f4597bd22288cbd385286b5d7553ebbd9a73aad1281ed5bdb145cf607464736f6c63430008130033",
  "linkReferences": {},
  "deployedLinkReferences": {}
}