{
  "_format": "hh-sol-artifact-1",
  "contractName": "ZKPVerifier",
  "sourceName": "contracts/ZKPVerifier.sol",
  "abi": [
    {
      "inputs": [],
      "stateMutability": "nonpayable",
      "type": "constructor"
    },
    {
      "anonymous": false,
      "inputs": [
        {
          "indexed": true,
          "internalType": "address",
          "name": "userAddress",
          "type": "address"
        },
        {
          "indexed": false,
          "internalType": "string",
          "name": "commitment",
          "type": "string"
        }
      ],
      "name": "CommitmentStored",
      "type": "event"
    },
    {
      "anonymous": false,
      "inputs": [
        {
          "indexed": true,
          "internalType": "address",
          "name": "userAddress",
          "type": "address"
        },
        {
          "indexed": false,
          "internalType": "string",
          "name": "proofId",
          "type": "string"
        },
        {
          "indexed": false,
          "internalType": "bool",
          "name": "isValid",
          "type": "bool"
        }
      ],
      "name": "ProofVerified",
      "type": "event"
    },
    {
      "inputs": [
        {
          "internalType": "address",
          "name": "userAddress",
          "type": "address"
        }
      ],
      "name": "getUserCommitment",
      "outputs": [
        {
          "internalType": "string",
          "name": "commitment",
          "type": "string"
        }
      ],
      "stateMutability": "view",
      "type": "function"
    },
    {
      "inputs": [
        {
          "internalType": "string",
          "name": "proofId",
          "type": "string"
        }
      ],
      "name": "isProofVerified",
      "outputs": [
        {
          "internalType": "bool",
          "name": "isVerified",
          "type": "bool"
        }
      ],
      "stateMutability": "view",
      "type": "function"
    },
    {
      "inputs": [],
      "name": "owner",
      "outputs": [
        {
          "internalType": "address",
          "name": "",
          "type": "address"
        }
      ],
      "stateMutability": "view",
      "type": "function"
    },
    {
      "inputs": [
        {
          "internalType": "address",
          "name": "userAddress",
          "type": "address"
        },
        {
          "internalType": "string",
          "name": "commitment",
          "type": "string"
        }
      ],
      "name": "storeCommitment",
      "outputs": [
        {
          "internalType": "bool",
          "name": "success",
          "type": "bool"
        }
      ],
      "stateMutability": "nonpayable",
      "type": "function"
    },
    {
      "inputs": [
        {
          "internalType": "address",
          "name": "",
          "type": "address"
        }
      ],
      "name": "userCommitments",
      "outputs": [
        {
          "internalType": "string",
          "name": "",
          "type": "string"
        }
      ],
      "stateMutability": "view",
      "type": "function"
    },
    {
      "inputs": [
        {
          "internalType": "string",
          "name": "",
          "type": "string"
        }
      ],
      "name": "verifiedProofs",
      "outputs": [
        {
          "internalType": "bool",
          "name": "",
          "type": "bool"
        }
      ],
      "stateMutability": "view",
      "type": "function"
    },
    {
      "inputs": [
        {
          "internalType": "address",
          "name": "userAddress",
          "type": "address"
        },
        {
          "internalType": "bytes",
          "name": "proof",
          "type": "bytes"
        },
        {
          "internalType": "bytes",
          "name": "publicSignals",
          "type": "bytes"
        }
      ],
      "name": "verifyProof",
      "outputs": [
        {
          "internalType": "bool",
          "name": "isValid",
          "type": "bool"
        }
      ],
      "stateMutability": "nonpayable",
      "type": "function"
    }
  ],
  "bytecode": "0x608060405234801561001057600080fd5b50336000806101000a81548173ffffffffffffffffffffffffffffffffffffffff021916908373ffffffffffffffffffffffffffffffffffffffff160217905550610e82806100606000396000f3fe608060405234801561001057600080fd5b506004361061007d5760003560e01c80634d6e7c7c1161005b5780634d6e7c7c146101125780635b6ef032146101425780638da5cb5b14610172578063da9b8dd8146101905761007d565b8063072545c31461008257806331166ef6146100b2578063415d6a01146100e2575b600080fd5b61009c600480360381019061009791906106a2565b6101c0565b6040516100a99190610706565b60405180910390f35b6100cc60048036038101906100c791906106a2565b6101f6565b6040516100d99190610706565b60405180910390f35b6100fc60048036038101906100f7919061077f565b61022b565b604051610109919061082b565b60405180910390f35b61012c600480360381019061012791906108ee565b6102fc565b6040516101399190610706565b60405180910390f35b61015c6004803603810190610157919061077f565b61039e565b604051610169919061082b565b60405180910390f35b61017a61043e565b6040516101879190610988565b60405180910390f35b6101aa60048036038101906101a591906109a3565b610462565b6040516101b79190610706565b60405180910390f35b6001818051602081018201805184825260208301602085012081835280955050505050506000915054906101000a900460ff1681565b60006001826040516102089190610a3b565b908152602001604051809103902060009054906101000a900460ff169050919050565b6060600260008373ffffffffffffffffffffffffffffffffffffffff1673ffffffffffffffffffffffffffffffffffffffff168152602001908152602001600020805461027790610a81565b80601f01602080910402602001604051908101604052809291908181526020018280546102a390610a81565b80156102f05780601f106102c5576101008083540402835291602001916102f0565b820191906000526020600020905b8154815290600101906020018083116102d357829003601f168201915b50505050509050919050565b60008061030a858585610509565b905060019150816001826040516103219190610a3b565b908152602001604051809103902060006101000a81548160ff0219169083151502179055508473ffffffffffffffffffffffffffffffffffffffff167f433782be3fc6a02023db77346f33f6e7cafa0eb86d52b9e790185d9f4373f527828460405161038e929190610ab2565b60405180910390a2509392505050565b600260205280600052604060002060009150905080546103bd90610a81565b80601f01602080910402602001604051908101604052809291908181526020018280546103e990610a81565b80156104365780601f1061040b57610100808354040283529160200191610436565b820191906000526020600020905b81548152906001019060200180831161041957829003601f168201915b505050505081565b60008054906101000a900473ffffffffffffffffffffffffffffffffffffffff1681565b600081600260008573ffffffffffffffffffffffffffffffffffffffff1673ffffffffffffffffffffffffffffffffffffffff16815260200190815260200160002090816104b09190610c98565b508273ffffffffffffffffffffffffffffffffffffffff167fe74cc53fd972c5d3852619a52bcc8f53217b0b060e82a0394654f12a62689e5c836040516104f7919061082b565b60405180910390a26001905092915050565b60608383805190602001208380519060200120426040516020016105309493929190610dfe565b60405160208183030381529060405290509392505050565b6000604051905090565b600080fd5b600080fd5b600080fd5b600080fd5b6000601f19601f8301169050919050565b7f4e487b7100000000000000000000000000000000000000000000000000000000600052604160045260246000fd5b6105af82610566565b810181811067ffffffffffffffff821117156105ce576105cd610577565b5b80604052505050565b60006105e1610548565b90506105ed82826105a6565b919050565b600067ffffffffffffffff82111561060d5761060c610577565b5b61061682610566565b9050602081019050919050565b82818337600083830152505050565b6000610645610640846105f2565b6105d7565b90508281526020810184848401111561066157610660610561565b5b61066c848285610623565b509392505050565b600082601f8301126106895761068861055c565b5b8135610699848260208601610632565b91505092915050565b6000602082840312156106b8576106b7610552565b5b600082013567ffffffffffffffff8111156106d6576106d5610557565b5b6106e284828501610674565b91505092915050565b60008115159050919050565b610700816106eb565b82525050565b600060208201905061071b60008301846106f7565b92915050565b600073ffffffffffffffffffffffffffffffffffffffff82169050919050565b600061074c82610721565b9050919050565b61075c81610741565b811461076757600080fd5b50565b60008135905061077981610753565b92915050565b60006020828403121561079557610794610552565b5b60006107a38482850161076a565b91505092915050565b600081519050919050565b600082825260208201905092915050565b60005b838110156107e65780820151818401526020810190506107cb565b60008484015250505050565b60006107fd826107ac565b61080781856107b7565b93506108178185602086016107c8565b61082081610566565b840191505092915050565b6000602082019050818103600083015261084581846107f2565b905092915050565b600067ffffffffffffffff82111561086857610867610577565b5b61087182610566565b9050602081019050919050565b600061089161088c8461084d565b6105d7565b9050828152602081018484840111156108ad576108ac610561565b5b6108b8848285610623565b509392505050565b600082601f8301126108d5576108d461055c565b5b81356108e584826020860161087e565b91505092915050565b60008060006060848603121561090757610906610552565b5b60006109158682870161076a565b935050602084013567ffffffffffffffff81111561093657610935610557565b5b610942868287016108c0565b925050604084013567ffffffffffffffff81111561096357610962610557565b5b61096f868287016108c0565b9150509250925092565b61098281610741565b82525050565b600060208201905061099d6000830184610979565b92915050565b600080604083850312156109ba576109b9610552565b5b60006109c88582860161076a565b925050602083013567ffffffffffffffff8111156109e9576109e8610557565b5b6109f585828601610674565b9150509250929050565b600081905092915050565b6000610a15826107ac565b610a1f81856109ff565b9350610a2f8185602086016107c8565b80840191505092915050565b6000610a478284610a0a565b915081905092915050565b7f4e487b7100000000000000000000000000000000000000000000000000000000600052602260045260246000fd5b60006002820490506001821680610a9957607f821691505b602082108103610aac57610aab610a52565b5b50919050565b60006040820190508181036000830152610acc81856107f2565b9050610adb60208301846106f7565b9392505050565b60008190508160005260206000209050919050565b60006020601f8301049050919050565b600082821b905092915050565b600060088302610b447fffffffffffffffffffffffffffffffffffffffffffffffffffffffffffffffff82610b07565b610b4e8683610b07565b95508019841693508086168417925050509392505050565b6000819050919050565b6000819050919050565b6000610b95610b90610b8b84610b66565b610b70565b610b66565b9050919050565b6000819050919050565b610baf83610b7a565b610bc3610bbb82610b9c565b848454610b14565b825550505050565b600090565b610bd8610bcb565b610be3818484610ba6565b505050565b5b81811015610c0757610bfc600082610bd0565b600181019050610be9565b5050565b601f821115610c4c57610c1d81610ae2565b610c2684610af7565b81016020851015610c35578190505b610c49610c4185610af7565b830182610be8565b50505b505050565b600082821c905092915050565b6000610c6f60001984600802610c51565b1980831691505092915050565b6000610c888383610c5e565b9150826002028217905092915050565b610ca1826107ac565b67ffffffffffffffff811115610cba57610cb9610577565b5b610cc48254610a81565b610ccf828285610c0b565b600060209050601f831160018114610d025760008415610cf0578287015190505b610cfa8582610c7c565b865550610d62565b601f198416610d1086610ae2565b60005b82811015610d3857848901518255600182019150602085019450602081019050610d13565b86831015610d555784890151610d51601f891682610c5e565b8355505b6001600288020188555050505b505050505050565b60008160601b9050919050565b6000610d8282610d6a565b9050919050565b6000610d9482610d77565b9050919050565b610dac610da782610741565b610d89565b82525050565b6000819050919050565b6000819050919050565b610dd7610dd282610db2565b610dbc565b82525050565b6000819050919050565b610df8610df382610b66565b610ddd565b82525050565b6000610e0a8287610d9b565b601482019150610e1a8286610dc6565b602082019150610e2a8285610dc6565b602082019150610e3a8284610de7565b6020820191508190509594505050505056fea2646970667358221220590f976d5433619068767a8fbaebdd241139f8147d202c31d65fa9ebca06e14564736f6c63430008130033",
  "linkReferences": {},
  "deployedLinkReferences": {}
}