{
  "_format": "hh-sol-artifact-1",
  "contractName": "ZKPVerifier",
  "sourceName": "contracts/ZKPVerifier.sol",
  "abi": [
    {
      "inputs": [
        {
          "internalType": "address",
          "name": "_verifierContract",
          "type": "address"
        }
      ],
      "stateMutability": "nonpayable",
      "type": "constructor"
    },
    {
      "anonymous": false,
      "inputs": [
        {
          "indexed": true,
          "internalType": "address",
          "name": "userAddress",
          "type": "address"
        },
        {
          "indexed": false,
          "internalType": "bytes32",
          "name": "commitment",
          "type": "bytes32"
        }
      ],
      "name": "CommitmentStored",
      "type": "event"
    },
    {
      "anonymous": false,
      "inputs": [
        {
          "indexed": true,
          "internalType": "address",
          "name": "userAddress",
          "type": "address"
        },
        {
          "indexed": false,
          "internalType": "bytes32",
          "name": "proofId",
          "type": "bytes32"
        },
        {
          "indexed": false,
          "internalType": "bool",
          "name": "isValid",
          "type": "bool"
        }
      ],
      "name": "ProofVerified",
      "type": "event"
    },
    {
      "inputs": [
        {
          "internalType": "address",
          "name": "userAddress",
          "type": "address"
        }
      ],
      "name": "getUserCommitment",
      "outputs": [
        {
          "internalType": "bytes32",
          "name": "commitment",
          "type": "bytes32"
        }
      ],
      "stateMutability": "view",
      "type": "function"
    },
    {
      "inputs": [
        {
          "internalType": "bytes32",
          "name": "proofId",
          "type": "bytes32"
        }
      ],
      "name": "isProofVerified",
      "outputs": [
        {
          "internalType": "bool",
          "name": "isVerified",
          "type": "bool"
        }
      ],
      "stateMutability": "view",
      "type": "function"
    },
    {
      "inputs": [],
      "name": "owner",
      "outputs": [
        {
          "internalType": "address",
          "name": "",
          "type": "address"
        }
      ],
      "stateMutability": "view",
      "type": "function"
    },
    {
      "inputs": [
        {
          "internalType": "bytes32",
          "name": "commitment",
          "type": "bytes32"
        }
      ],
      "name": "storeCommitment",
      "outputs": [
        {
          "internalType": "bool",
          "name": "success",
          "type": "bool"
        }
      ],
      "stateMutability": "nonpayable",
      "type": "function"
    },
    {
      "inputs": [
        {
          "internalType": "address",
          "name": "_newVerifierContract",
          "type": "address"
        }
      ],
      "name": "updateVerifierContract",
      "outputs": [],
      "stateMutability": "nonpayable",
      "type": "function"
    },
    {
      "inputs": [
        {
          "internalType": "address",
          "name": "",
          "type": "address"
        }
      ],
      "name": "userCommitments",
      "outputs": [
        {
          "internalType": "bytes32",
          "name": "",
          "type": "bytes32"
        }
      ],
      "stateMutability": "view",
      "type": "function"
    },
    {
      "inputs": [
        {
          "internalType": "bytes32",
          "name": "",
          "type": "bytes32"
        }
      ],
      "name": "verifiedProofs",
      "outputs": [
        {
          "internalType": "bool",
          "name": "",
          "type": "bool"
        }
      ],
      "stateMutability": "view",
      "type": "function"
    },
    {
      "inputs": [],
      "name": "verifierContract",
      "outputs": [
        {
          "internalType": "address",
          "name": "",
          "type": "address"
        }
      ],
      "stateMutability": "view",
      "type": "function"
    },
    {
      "inputs": [
        {
          "internalType": "uint256[2]",
          "name": "a",
          "type": "uint256[2]"
        },
        {
          "internalType": "uint256[2][2]",
          "name": "b",
          "type": "uint256[2][2]"
        },
        {
          "internalType": "uint256[2]",
          "name": "c",
          "type": "uint256[2]"
        },
        {
          "internalType": "uint256[]",
          "name": "input",
          "type": "uint256[]"
        }
      ],
      "name": "verifyProof",
      "outputs": [
        {
          "internalType": "bool",
          "name": "isValid",
          "type": "bool"
        }
      ],
      "stateMutability": "nonpayable",
      "type": "function"
    }
  ],
  "bytecode": "0x60806040523480156200001157600080fd5b50604051620017023803806200170283398181016040528101906200003791906200019b565b600073ffffffffffffffffffffffffffffffffffffffff168173ffffffffffffffffffffffffffffffffffffffff1603620000a9576040517f08c379a0000000000000000000000000000000000000000000000000000000008152600401620000a09062000254565b60405180910390fd5b336000806101000a81548173ffffffffffffffffffffffffffffffffffffffff021916908373ffffffffffffffffffffffffffffffffffffffff16021790555080600160006101000a81548173ffffffffffffffffffffffffffffffffffffffff021916908373ffffffffffffffffffffffffffffffffffffffff1602179055505062000276565b600080fd5b600073ffffffffffffffffffffffffffffffffffffffff82169050919050565b6000620001638262000136565b9050919050565b620001758162000156565b81146200018157600080fd5b50565b60008151905062000195816200016a565b92915050565b600060208284031215620001b457620001b362000131565b5b6000620001c48482850162000184565b91505092915050565b600082825260208201905092915050565b7f496e76616c696420766572696669657220636f6e74726163742061646472657360008201527f7300000000000000000000000000000000000000000000000000000000000000602082015250565b60006200023c602183620001cd565b91506200024982620001de565b604082019050919050565b600060208201905081810360008301526200026f816200022d565b9050919050565b61147c80620002866000396000f3fe608060405234801561001057600080fd5b50600436106100935760003560e01c80635b6ef032116100665780635b6ef032146101585780638da5cb5b14610188578063c32e370e146101a6578063cf695688146101d6578063e0dc970e146101f457610093565b8063176d80c414610098578063377d2778146100c8578063415d6a01146100f857806342c8fd0014610128575b600080fd5b6100b260048036038101906100ad9190610877565b610210565b6040516100bf91906108bf565b60405180910390f35b6100e260048036038101906100dd9190610877565b610230565b6040516100ef91906108bf565b60405180910390f35b610112600480360381019061010d9190610938565b610312565b60405161011f9190610974565b60405180910390f35b610142600480360381019061013d9190610877565b61035b565b60405161014f91906108bf565b60405180910390f35b610172600480360381019061016d9190610938565b610385565b60405161017f9190610974565b60405180910390f35b61019061039d565b60405161019d919061099e565b60405180910390f35b6101c060048036038101906101bb9190610caa565b6103c1565b6040516101cd91906108bf565b60405180910390f35b6101de61055c565b6040516101eb919061099e565b60405180910390f35b61020e60048036038101906102099190610938565b610582565b005b60026020528060005260406000206000915054906101000a900460ff1681565b60008060001b8203610277576040517f08c379a000000000000000000000000000000000000000000000000000000000815260040161026e90610d8c565b60405180910390fd5b81600360003373ffffffffffffffffffffffffffffffffffffffff1673ffffffffffffffffffffffffffffffffffffffff168152602001908152602001600020819055503373ffffffffffffffffffffffffffffffffffffffff167f3d72d29667cd2cb55607b194d3fff97eb719a56e534ef08df10e1dca46d728c0836040516103019190610974565b60405180910390a260019050919050565b6000600360008373ffffffffffffffffffffffffffffffffffffffff1673ffffffffffffffffffffffffffffffffffffffff168152602001908152602001600020549050919050565b60006002600083815260200190815260200160002060009054906101000a900460ff169050919050565b60036020528060005260406000206000915090505481565b60008054906101000a900473ffffffffffffffffffffffffffffffffffffffff1681565b6000806103d133878787876106c3565b90506002600082815260200190815260200160002060009054906101000a900460ff1615610434576040517f08c379a000000000000000000000000000000000000000000000000000000000815260040161042b90610df8565b60405180910390fd5b600160009054906101000a900473ffffffffffffffffffffffffffffffffffffffff1673ffffffffffffffffffffffffffffffffffffffff1663c32e370e878787876040518563ffffffff1660e01b81526004016104959493929190611058565b602060405180830381865afa1580156104b2573d6000803e3d6000fd5b505050506040513d601f19601f820116820180604052508101906104d691906110d2565b9150816002600083815260200190815260200160002060006101000a81548160ff0219169083151502179055503373ffffffffffffffffffffffffffffffffffffffff167fe8ad06fecfe3c13cc84998449b1933654518c4ba62322f6f5f079ca0e8e82233828460405161054b9291906110ff565b60405180910390a250949350505050565b600160009054906101000a900473ffffffffffffffffffffffffffffffffffffffff1681565b60008054906101000a900473ffffffffffffffffffffffffffffffffffffffff1673ffffffffffffffffffffffffffffffffffffffff163373ffffffffffffffffffffffffffffffffffffffff1614610610576040517f08c379a00000000000000000000000000000000000000000000000000000000081526004016106079061119a565b60405180910390fd5b600073ffffffffffffffffffffffffffffffffffffffff168173ffffffffffffffffffffffffffffffffffffffff160361067f576040517f08c379a00000000000000000000000000000000000000000000000000000000081526004016106769061122c565b60405180910390fd5b80600160006101000a81548173ffffffffffffffffffffffffffffffffffffffff021916908373ffffffffffffffffffffffffffffffffffffffff16021790555050565b600085856000600281106106da576106d961124c565b5b6020020151866001600281106106f3576106f261124c565b5b60200201518660006002811061070c5761070b61124c565b5b60200201516000600281106107245761072361124c565b5b60200201518760006002811061073d5761073c61124c565b5b60200201516001600281106107555761075461124c565b5b60200201518860016002811061076e5761076d61124c565b5b60200201516000600281106107865761078561124c565b5b60200201518960016002811061079f5761079e61124c565b5b60200201516001600281106107b7576107b661124c565b5b6020020151896000600281106107d0576107cf61124c565b5b60200201518a6001600281106107e9576107e861124c565b5b60200201518a424660405160200161080c9c9b9a99989796959493929190611374565b60405160208183030381529060405280519060200120905095945050505050565b6000604051905090565b600080fd5b600080fd5b6000819050919050565b61085481610841565b811461085f57600080fd5b50565b6000813590506108718161084b565b92915050565b60006020828403121561088d5761088c610837565b5b600061089b84828501610862565b91505092915050565b60008115159050919050565b6108b9816108a4565b82525050565b60006020820190506108d460008301846108b0565b92915050565b600073ffffffffffffffffffffffffffffffffffffffff82169050919050565b6000610905826108da565b9050919050565b610915816108fa565b811461092057600080fd5b50565b6000813590506109328161090c565b92915050565b60006020828403121561094e5761094d610837565b5b600061095c84828501610923565b91505092915050565b61096e81610841565b82525050565b60006020820190506109896000830184610965565b92915050565b610998816108fa565b82525050565b60006020820190506109b3600083018461098f565b92915050565b600080fd5b6000601f19601f8301169050919050565b7f4e487b7100000000000000000000000000000000000000000000000000000000600052604160045260246000fd5b610a07826109be565b810181811067ffffffffffffffff82111715610a2657610a256109cf565b5b80604052505050565b6000610a3961082d565b9050610a4582826109fe565b919050565b600067ffffffffffffffff821115610a6557610a646109cf565b5b602082029050919050565b600080fd5b6000819050919050565b610a8881610a75565b8114610a9357600080fd5b50565b600081359050610aa581610a7f565b92915050565b6000610abe610ab984610a4a565b610a2f565b90508060208402830185811115610ad857610ad7610a70565b5b835b81811015610b015780610aed8882610a96565b845260208401935050602081019050610ada565b5050509392505050565b600082601f830112610b2057610b1f6109b9565b5b6002610b2d848285610aab565b91505092915050565b600067ffffffffffffffff821115610b5157610b506109cf565b5b602082029050919050565b6000610b6f610b6a84610b36565b610a2f565b90508060408402830185811115610b8957610b88610a70565b5b835b81811015610bb25780610b9e8882610b0b565b845260208401935050604081019050610b8b565b5050509392505050565b600082601f830112610bd157610bd06109b9565b5b6002610bde848285610b5c565b91505092915050565b600067ffffffffffffffff821115610c0257610c016109cf565b5b602082029050602081019050919050565b6000610c26610c2184610be7565b610a2f565b90508083825260208201905060208402830185811115610c4957610c48610a70565b5b835b81811015610c725780610c5e8882610a96565b845260208401935050602081019050610c4b565b5050509392505050565b600082601f830112610c9157610c906109b9565b5b8135610ca1848260208601610c13565b91505092915050565b6000806000806101208587031215610cc557610cc4610837565b5b6000610cd387828801610b0b565b9450506040610ce487828801610bbc565b93505060c0610cf587828801610b0b565b92505061010085013567ffffffffffffffff811115610d1757610d1661083c565b5b610d2387828801610c7c565b91505092959194509250565b600082825260208201905092915050565b7f496e76616c696420636f6d6d69746d656e740000000000000000000000000000600082015250565b6000610d76601283610d2f565b9150610d8182610d40565b602082019050919050565b60006020820190508181036000830152610da581610d69565b9050919050565b7f50726f6f6620616c726561647920766572696669656400000000000000000000600082015250565b6000610de2601683610d2f565b9150610ded82610dac565b602082019050919050565b60006020820190508181036000830152610e1181610dd5565b9050919050565b600060029050919050565b600081905092915050565b6000819050919050565b610e4181610a75565b82525050565b6000610e538383610e38565b60208301905092915050565b6000602082019050919050565b610e7581610e18565b610e7f8184610e23565b9250610e8a82610e2e565b8060005b83811015610ebb578151610ea28782610e47565b9650610ead83610e5f565b925050600181019050610e8e565b505050505050565b600060029050919050565b600081905092915050565b6000819050919050565b600081905092915050565b610ef781610e18565b610f018184610ee3565b9250610f0c82610e2e565b8060005b83811015610f3d578151610f248782610e47565b9650610f2f83610e5f565b925050600181019050610f10565b505050505050565b6000610f518383610eee565b60408301905092915050565b6000602082019050919050565b610f7381610ec3565b610f7d8184610ece565b9250610f8882610ed9565b8060005b83811015610fb9578151610fa08782610f45565b9650610fab83610f5d565b925050600181019050610f8c565b505050505050565b600081519050919050565b600082825260208201905092915050565b6000819050602082019050919050565b6000602082019050919050565b600061100582610fc1565b61100f8185610fcc565b935061101a83610fdd565b8060005b8381101561104b5781516110328882610e47565b975061103d83610fed565b92505060018101905061101e565b5085935050505092915050565b60006101208201905061106e6000830187610e6c565b61107b6040830186610f6a565b61108860c0830185610e6c565b81810361010083015261109b8184610ffa565b905095945050505050565b6110af816108a4565b81146110ba57600080fd5b50565b6000815190506110cc816110a6565b92915050565b6000602082840312156110e8576110e7610837565b5b60006110f6848285016110bd565b91505092915050565b60006040820190506111146000830185610965565b61112160208301846108b0565b9392505050565b7f4f6e6c79206f776e65722063616e2063616c6c20746869732066756e6374696f60008201527f6e00000000000000000000000000000000000000000000000000000000000000602082015250565b6000611184602183610d2f565b915061118f82611128565b604082019050919050565b600060208201905081810360008301526111b381611177565b9050919050565b7f496e76616c696420766572696669657220636f6e74726163742061646472657360008201527f7300000000000000000000000000000000000000000000000000000000000000602082015250565b6000611216602183610d2f565b9150611221826111ba565b604082019050919050565b6000602082019050818103600083015261124581611209565b9050919050565b7f4e487b7100000000000000000000000000000000000000000000000000000000600052603260045260246000fd5b60008160601b9050919050565b60006112938261127b565b9050919050565b60006112a582611288565b9050919050565b6112bd6112b8826108fa565b61129a565b82525050565b6000819050919050565b6112de6112d982610a75565b6112c3565b82525050565b600081905092915050565b6112f881610a75565b82525050565b600061130a83836112ef565b60208301905092915050565b600061132182610fc1565b61132b81856112e4565b935061133683610fdd565b8060005b8381101561136757815161134e88826112fe565b975061135983610fed565b92505060018101905061133a565b5085935050505092915050565b6000611380828f6112ac565b601482019150611390828e6112cd565b6020820191506113a0828d6112cd565b6020820191506113b0828c6112cd565b6020820191506113c0828b6112cd565b6020820191506113d0828a6112cd565b6020820191506113e082896112cd565b6020820191506113f082886112cd565b60208201915061140082876112cd565b6020820191506114108286611316565b915061141c82856112cd565b60208201915061142c82846112cd565b6020820191508190509d9c5050505050505050505050505056fea2646970667358221220a2c452dedfa94288b755284f7c3c706d2aefd1996df84a174e2f1228673faf9864736f6c63430008130033",
  "linkReferences": {},
  "deployedLinkReferences": {}
}